:040000000C949800C4
:100004000C94C8000C94CD000C9400000C940000D7
:100014000C9400000C9400000C9400000C94CC018F
:100024000C9400000C9400000C94F1000C9400005B
:100034000C9400000C9400000C9400000C9400003C
:100044000C9400000C9400000C9400000C9400002C
:100054001027E80364000A000100001000011000EA
:1000640001000000000061303F0061313F00623058
:100074003F0062313F0063303F0063313F00643032
:100084003F0064313F0065303F0065313F0066301A
:100094003F0066313F0067303F0067313F00683002
:1000A4003F0068313F0073703F0073743F00257553
:1000B4000A00010002006600040060016A000400F6
:1000C40064016E0004006801720004006C01760093
:1000D400040070017A00040074017E0004007801B9
:1000E400820004007C018600040080018A00040070
:1000F40084018E0004008801920004008C019600A3
:10010400040090019A00040094019E0004009801E8
:10011400A20004009C01A6000400A001AA0004009F
:10012400A401AE000100050068000000F894EE2769
:10013400ECBBF1E0FBBFEBBFE5BFF8E1F1BDE1BD16
:100144008DE0A2E0BB27ED938A95E9F780E094E087
:10015400A0E6ED930197E9F7E6EBF0E08591959140
:10016400009761F0A591B59105901590BF01F0013C
:1001740005900D920197E1F7FB01F0CFEFE5EDBF9C
:10018400E4E0EEBFC0E6D1E00C94D801EA93E0E0ED
:10019400E7BBE4BB09C1EA93EFEFE7BBE4BB04C1EF
:1001A4005D9BFECFE881ECB9F3C01A930A93EA8110
:1001B400FB81FA93EA930E9432021E2F00E001179A
:1001C40050F4AA81BB81EE27A00FBE1FEC91EA93E5
:1001D400E7DF0F5FF4CF19810881249608950A920E
:1001E4001A92FA926A937A938A939A93AA93BA93F5
:1001F400EA93FA93EFB7EA931A930A931BB10CB1FB
:10020400E52DF0E0E855FE4F008353940F3309F4D5
:1002140055240E94F003E0E6F1E00E94F50311F496
:10022400C09A11C00E94F003E4E6F1E00E94F503D5
:1002340011F4C09808C00E94F003E8E6F1E00E94BF
:10024400F50309F4C19A0E94F003ECE6F1E00E9480
:10025400F50311F4C19880C00E94F003E0E7F1E0D7
:100264000E94F50311F4C29A77C00E94F003E4E7F8
:10027400F1E00E94F50311F4C2986EC00E94F003ED
:10028400E8E7F1E00E94F50311F4C39A65C00E9407
:10029400F003ECE7F1E00E94F50311F4C3985CC0AD
:1002A4000E94F003E0E8F1E00E94F50311F4C49A1F
:1002B40053C00E94F003E4E8F1E00E94F50311F456
:1002C400C4984AC00E94F003E8E8F1E00E94F503F4
:1002D40011F4C59A41C00E94F003ECE8F1E00E94D9
:1002E400F50311F4C59A38C00E94F003E0E9F1E087
:1002F4000E94F50311F4C69A2FC00E94F003E4E9AA
:10030400F1E00E94F50311F4C69826C00E94F003A0
:10031400E8E9F1E00E94F50311F4C79A1DC00E94B8
:10032400F003ECE9F1E00E94F50311F4C79814C05E
:100334000E94F003E0EAF1E00E94F50319F4E0E022
:10034400E7BB09C00E94F003E4EAF1E00E94F50370
:1003540019F4EFEFE7BBE4BB09911991E991EFBF01
:10036400F991E991B991A9919991899179916991B9
:10037400F990199009901895E881E06EE7B98BE13E
:100384008A95F1F7369A349BFECF349AE5B1F0E0C2
:1003940021960895EA93A99B02C0A99801C0A99A3D
:1003A400E5E8EDBDEDEEECBDE9911895E0E0E7BBC5
:1003B400E4BBEBB7E06CEBBFEAE0E5BFE0E0E4BF31
:1003C400E0ECEABFE4E0EEBDE9BFE5E8EDBDEDEE4B
:1003D400ECBDE0E0EBB9E8E9EAB9E6E8E0BDE0E06D
:1003E400E0BDE3E3E9B9E0E8E8B9E0E0E0BFE0EE6E
:1003F400E7B9E3E8E6B97894E1E0EA93BDDF4F01B9
:10040400E0EBF1E0FA93EA93E2EBF0E0FA93EA939B
:10041400F401662777270E94470484E00E94BA0308
:100424002896E0EBF1E0FA93EA93BFDEE8EEF3E01E
:10043400FA93EA930E942B04DFCFFFCFE991F9915D
:10044400A991B9916D917191671721F46623D1F740
:10045400EE270895671BE1F3E1E008F4E250089504
:10046400A991B991EE27FF276D91662311F031967A
:10047400FBCF0895AA27BB27E991F99105900020A5
:1004840011F01196FBCFFD0108951A930A93AA81E6
:10049400BB8112960E943F04309759F1AA81BB8117
:1004A40014960E943F048F01309761F00230E0E01F
:1004B4001E07F0F0F80131978F01AA81BB811496D1
:1004C400ED93FC93AA81BB811296ED91FD91319637
:1004D400FE93EE933197AC81A083AA81BB810E94E5
:1004E4003F04FF232AF0ED91FD913196FE93EE93A4
:1004F40006C0AA81BB81EFEFFFEFED93FC93198156
:1005040008812596089526970E944C0410E0AC8536
:10051400BD85E0E0F0E0ED93FC93EA89FB89319638
:10052400EA8BFB8B3197E4912E2FE03011F40C947D
:10053400B203E12FE03039F4253211F411E002C0A6
:100544000E94FB030CC1E130A9F4253219F40E9486
:10055400FB0304C112E040E000E02D3211F401E09D
:10056400FEC02B3211F44BE2FAC0203211F440E207
:10057400F6C002C0E23039F450E013E0203311F445
:100584000068EDC004C0E33011F00C94B1032033D3
:1005940010F02A3308F007C0AAE05A9F502DE22F2A
:1005A400E0535E0FDCC0E22FE33649F40E940404FA
:1005B400E889F989A481AA930E940A04CFC0E33789
:1005C40041F40E9404040E9412040E9432021E2F6D
:1005D4000AC0E03761F40E9404040E9412040E94DD
:1005E4003C021E2F086002600F7730E035C0E4360D
:1005F40011F0E93611F4046002C0E53731F4E4E5A2
:10060400F0E0EE83FF8315E00DC0E83511F40860D7
:1006140004C0E83711F00C94B003EEE5F0E0EE838B
:10062400FF8314E002FF14C00E9404040E941C040F
:10063400AB85AA233AF4EA85FB850E943B04EA874A
:10064400FB874DE2403011F01F5F01C00B7F04C0F7
:100654000E9404040E941C0400FD11C0151778F4C4
:1006640007FF08C002FF04C00B7F242F115001C0F4
:1006740020E301C020E20E94FB035150EFCF312F51
:1006840001FF17C03030A1F003FF06C0EE81FF81E7
:100694002591EE83FF8305C0AE81BF812D91AE838A
:1006A400BF830E94FB03503009F051503150EACF10
:1006B4004BC020E3EE81FF810E944304E887F98761
:1006C400EE81FF813296EE83FF83E885F985AA8562
:1006D400BB85AE17BF0750F02F5FA885B985EA85A3
:1006E400FB85EA1BFB0BEA87FB87EFCF2A3328F055
:1006F40003FF02C0295F01C0295D04FD1AC0213334
:1007040020F4A885B985119709F409C0531710F08E
:1007140000FF01C013C020E207FF0BC020E300610B
:1007240002FF07C00B7F4A930E940A04503009F06D
:1007340051500E94FB03503009F051503150A885AC
:10074400B985129708F0B5CF00FF08C0503031F0DA
:100754005150E0E2EA930E940A04F8CF10E0DDCEA3
:10076400AC85BD850E943F040E945304649608959D
:10077400FF92F82E26970E944E040E94240430977C
:1007840019F4EFEFFFEF25C0DE0116960E9437043F
:100794008D010E942404EE83FF83E0E0E887E9876B
:1007A400DE011A960E9437040E943F04FA93EA93EA
:1007B4001A930A93E7E4F2E0FA93EA93FE013A9675
:1007C400FA93EA93A0DE9F01AE81BF81E0E0EC934F
:1007D400F9010E9455042A96FF900895E8EAF1E091
:1007E400FA93EA930895FA93EA930E942002E03080
:1007F40008952A93ED85FE85FA93EA93E989FA89A7
:1008040009950895E889F9893497E88BF98B089557
:10081400ED85FE85FA93EA93E989FA8909950895A5
:10082400A889B98914960E943F04EE83FF83FA9342
:10083400EA930895A889B98914960E943F04EA8727
:10084400FB870895DE011C960E9437040E943F0432
:100854000895E991F991309639F080ED97E0019788
:10086400F1F7A8953197C9F708950024AF0DB01D8D
:100874000895F195E195F0400895ED91FC9111975B
:1008840008950590F491E02D08957A936A93FA936C
:10089400EA9308955A934A933A932A931A930A939C
:1008A40008955D814C813B812A81198108810895D5
:00000001FF
